{
  "_format": "hh-sol-artifact-1",
  "contractName": "NFTMarketplace",
  "sourceName": "contracts/NFTMarketplace.sol",
  "abi": [
    {
      "inputs": [],
      "stateMutability": "nonpayable",
      "type": "constructor"
    },
    {
      "anonymous": false,
      "inputs": [
        {
          "indexed": true,
          "internalType": "address",
          "name": "owner",
          "type": "address"
        },
        {
          "indexed": true,
          "internalType": "address",
          "name": "approved",
          "type": "address"
        },
        {
          "indexed": true,
          "internalType": "uint256",
          "name": "tokenId",
          "type": "uint256"
        }
      ],
      "name": "Approval",
      "type": "event"
    },
    {
      "anonymous": false,
      "inputs": [
        {
          "indexed": true,
          "internalType": "address",
          "name": "owner",
          "type": "address"
        },
        {
          "indexed": true,
          "internalType": "address",
          "name": "operator",
          "type": "address"
        },
        {
          "indexed": false,
          "internalType": "bool",
          "name": "approved",
          "type": "bool"
        }
      ],
      "name": "ApprovalForAll",
      "type": "event"
    },
    {
      "anonymous": false,
      "inputs": [
        {
          "indexed": true,
          "internalType": "uint256",
          "name": "tokenId",
          "type": "uint256"
        },
        {
          "indexed": false,
          "internalType": "address",
          "name": "seller",
          "type": "address"
        },
        {
          "indexed": false,
          "internalType": "address",
          "name": "owner",
          "type": "address"
        },
        {
          "indexed": false,
          "internalType": "uint256",
          "name": "price",
          "type": "uint256"
        },
        {
          "indexed": false,
          "internalType": "bool",
          "name": "sold",
          "type": "bool"
        }
      ],
      "name": "MarketItemCreated",
      "type": "event"
    },
    {
      "anonymous": false,
      "inputs": [
        {
          "indexed": true,
          "internalType": "address",
          "name": "from",
          "type": "address"
        },
        {
          "indexed": true,
          "internalType": "address",
          "name": "to",
          "type": "address"
        },
        {
          "indexed": true,
          "internalType": "uint256",
          "name": "tokenId",
          "type": "uint256"
        }
      ],
      "name": "Transfer",
      "type": "event"
    },
    {
      "inputs": [
        {
          "internalType": "address",
          "name": "to",
          "type": "address"
        },
        {
          "internalType": "uint256",
          "name": "tokenId",
          "type": "uint256"
        }
      ],
      "name": "approve",
      "outputs": [],
      "stateMutability": "nonpayable",
      "type": "function"
    },
    {
      "inputs": [
        {
          "internalType": "address",
          "name": "owner",
          "type": "address"
        }
      ],
      "name": "balanceOf",
      "outputs": [
        {
          "internalType": "uint256",
          "name": "",
          "type": "uint256"
        }
      ],
      "stateMutability": "view",
      "type": "function"
    },
    {
      "inputs": [
        {
          "internalType": "uint256",
          "name": "tokenId",
          "type": "uint256"
        }
      ],
      "name": "createMarketSales",
      "outputs": [],
      "stateMutability": "payable",
      "type": "function"
    },
    {
      "inputs": [
        {
          "internalType": "string",
          "name": "tokenURI",
          "type": "string"
        },
        {
          "internalType": "uint256",
          "name": "price",
          "type": "uint256"
        }
      ],
      "name": "createToken",
      "outputs": [
        {
          "internalType": "uint256",
          "name": "",
          "type": "uint256"
        }
      ],
      "stateMutability": "payable",
      "type": "function"
    },
    {
      "inputs": [],
      "name": "fetchItemsListed",
      "outputs": [
        {
          "components": [
            {
              "internalType": "uint256",
              "name": "tokenId",
              "type": "uint256"
            },
            {
              "internalType": "address payable",
              "name": "seller",
              "type": "address"
            },
            {
              "internalType": "address payable",
              "name": "owner",
              "type": "address"
            },
            {
              "internalType": "uint256",
              "name": "price",
              "type": "uint256"
            },
            {
              "internalType": "bool",
              "name": "sold",
              "type": "bool"
            }
          ],
          "internalType": "struct NFTMarketplace.MarketItem[]",
          "name": "",
          "type": "tuple[]"
        }
      ],
      "stateMutability": "view",
      "type": "function"
    },
    {
      "inputs": [],
      "name": "fetchMarketItems",
      "outputs": [
        {
          "components": [
            {
              "internalType": "uint256",
              "name": "tokenId",
              "type": "uint256"
            },
            {
              "internalType": "address payable",
              "name": "seller",
              "type": "address"
            },
            {
              "internalType": "address payable",
              "name": "owner",
              "type": "address"
            },
            {
              "internalType": "uint256",
              "name": "price",
              "type": "uint256"
            },
            {
              "internalType": "bool",
              "name": "sold",
              "type": "bool"
            }
          ],
          "internalType": "struct NFTMarketplace.MarketItem[]",
          "name": "",
          "type": "tuple[]"
        }
      ],
      "stateMutability": "view",
      "type": "function"
    },
    {
      "inputs": [],
      "name": "fetchMyNFTs",
      "outputs": [
        {
          "components": [
            {
              "internalType": "uint256",
              "name": "tokenId",
              "type": "uint256"
            },
            {
              "internalType": "address payable",
              "name": "seller",
              "type": "address"
            },
            {
              "internalType": "address payable",
              "name": "owner",
              "type": "address"
            },
            {
              "internalType": "uint256",
              "name": "price",
              "type": "uint256"
            },
            {
              "internalType": "bool",
              "name": "sold",
              "type": "bool"
            }
          ],
          "internalType": "struct NFTMarketplace.MarketItem[]",
          "name": "",
          "type": "tuple[]"
        }
      ],
      "stateMutability": "view",
      "type": "function"
    },
    {
      "inputs": [
        {
          "internalType": "uint256",
          "name": "tokenId",
          "type": "uint256"
        }
      ],
      "name": "getApproved",
      "outputs": [
        {
          "internalType": "address",
          "name": "",
          "type": "address"
        }
      ],
      "stateMutability": "view",
      "type": "function"
    },
    {
      "inputs": [],
      "name": "getListingPrice",
      "outputs": [
        {
          "internalType": "uint256",
          "name": "",
          "type": "uint256"
        }
      ],
      "stateMutability": "view",
      "type": "function"
    },
    {
      "inputs": [
        {
          "internalType": "address",
          "name": "owner",
          "type": "address"
        },
        {
          "internalType": "address",
          "name": "operator",
          "type": "address"
        }
      ],
      "name": "isApprovedForAll",
      "outputs": [
        {
          "internalType": "bool",
          "name": "",
          "type": "bool"
        }
      ],
      "stateMutability": "view",
      "type": "function"
    },
    {
      "inputs": [],
      "name": "name",
      "outputs": [
        {
          "internalType": "string",
          "name": "",
          "type": "string"
        }
      ],
      "stateMutability": "view",
      "type": "function"
    },
    {
      "inputs": [
        {
          "internalType": "uint256",
          "name": "tokenId",
          "type": "uint256"
        }
      ],
      "name": "ownerOf",
      "outputs": [
        {
          "internalType": "address",
          "name": "",
          "type": "address"
        }
      ],
      "stateMutability": "view",
      "type": "function"
    },
    {
      "inputs": [
        {
          "internalType": "uint256",
          "name": "tokenId",
          "type": "uint256"
        },
        {
          "internalType": "uint256",
          "name": "price",
          "type": "uint256"
        }
      ],
      "name": "reSellToken",
      "outputs": [],
      "stateMutability": "payable",
      "type": "function"
    },
    {
      "inputs": [
        {
          "internalType": "address",
          "name": "from",
          "type": "address"
        },
        {
          "internalType": "address",
          "name": "to",
          "type": "address"
        },
        {
          "internalType": "uint256",
          "name": "tokenId",
          "type": "uint256"
        }
      ],
      "name": "safeTransferFrom",
      "outputs": [],
      "stateMutability": "nonpayable",
      "type": "function"
    },
    {
      "inputs": [
        {
          "internalType": "address",
          "name": "from",
          "type": "address"
        },
        {
          "internalType": "address",
          "name": "to",
          "type": "address"
        },
        {
          "internalType": "uint256",
          "name": "tokenId",
          "type": "uint256"
        },
        {
          "internalType": "bytes",
          "name": "_data",
          "type": "bytes"
        }
      ],
      "name": "safeTransferFrom",
      "outputs": [],
      "stateMutability": "nonpayable",
      "type": "function"
    },
    {
      "inputs": [
        {
          "internalType": "address",
          "name": "operator",
          "type": "address"
        },
        {
          "internalType": "bool",
          "name": "approved",
          "type": "bool"
        }
      ],
      "name": "setApprovalForAll",
      "outputs": [],
      "stateMutability": "nonpayable",
      "type": "function"
    },
    {
      "inputs": [
        {
          "internalType": "bytes4",
          "name": "interfaceId",
          "type": "bytes4"
        }
      ],
      "name": "supportsInterface",
      "outputs": [
        {
          "internalType": "bool",
          "name": "",
          "type": "bool"
        }
      ],
      "stateMutability": "view",
      "type": "function"
    },
    {
      "inputs": [],
      "name": "symbol",
      "outputs": [
        {
          "internalType": "string",
          "name": "",
          "type": "string"
        }
      ],
      "stateMutability": "view",
      "type": "function"
    },
    {
      "inputs": [
        {
          "internalType": "uint256",
          "name": "tokenId",
          "type": "uint256"
        }
      ],
      "name": "tokenURI",
      "outputs": [
        {
          "internalType": "string",
          "name": "",
          "type": "string"
        }
      ],
      "stateMutability": "view",
      "type": "function"
    },
    {
      "inputs": [
        {
          "internalType": "address",
          "name": "from",
          "type": "address"
        },
        {
          "internalType": "address",
          "name": "to",
          "type": "address"
        },
        {
          "internalType": "uint256",
          "name": "tokenId",
          "type": "uint256"
        }
      ],
      "name": "transferFrom",
      "outputs": [],
      "stateMutability": "nonpayable",
      "type": "function"
    },
    {
      "inputs": [
        {
          "internalType": "uint256",
          "name": "_listingPrice",
          "type": "uint256"
        }
      ],
      "name": "updateListingPrice",
      "outputs": [],
      "stateMutability": "payable",
      "type": "function"
    }
  ],
  "bytecode": "0x60806040526658d15e176280006009553480156200001c57600080fd5b506040518060400160405280601081526020017f4d657461766572736520546f6b656e73000000000000000000000000000000008152506040518060400160405280600481526020017f4d455454000000000000000000000000000000000000000000000000000000008152508160009080519060200190620000a192919062000104565b508060019080519060200190620000ba92919062000104565b50505033600a60006101000a81548173ffffffffffffffffffffffffffffffffffffffff021916908373ffffffffffffffffffffffffffffffffffffffff16021790555062000219565b8280546200011290620001b4565b90600052602060002090601f01602090048101928262000136576000855562000182565b82601f106200015157805160ff191683800117855562000182565b8280016001018555821562000182579182015b828111156200018157825182559160200191906001019062000164565b5b50905062000191919062000195565b5090565b5b80821115620001b057600081600090555060010162000196565b5090565b60006002820490506001821680620001cd57607f821691505b60208210811415620001e457620001e3620001ea565b5b50919050565b7f4e487b7100000000000000000000000000000000000000000000000000000000600052602260045260246000fd5b61451f80620002296000396000f3fe60806040526004361061012a5760003560e01c8063488685db116100ab57806395d89b411161006f57806395d89b41146103dd578063a22cb46514610408578063ae677aa314610431578063b88d4fde1461044d578063c87b56dd14610476578063e985e9c5146104b35761012a565b8063488685db146102fb5780636352211e1461031757806370a082311461035457806372b3b6201461039157806385535b25146103c15761012a565b806312e85585116100f257806312e8558514610228578063202e37401461025357806323b872dd1461027e57806342842e0e146102a757806345f8fa80146102d05761012a565b806301ffc9a71461012f57806306fdde031461016c578063081812fc14610197578063095ea7b3146101d45780630f08efe0146101fd575b600080fd5b34801561013b57600080fd5b5061015660048036038101906101519190612f62565b6104f0565b604051610163919061366e565b60405180910390f35b34801561017857600080fd5b506101816105d2565b60405161018e9190613689565b60405180910390f35b3480156101a357600080fd5b506101be60048036038101906101b99190613008565b610664565b6040516101cb91906135a0565b60405180910390f35b3480156101e057600080fd5b506101fb60048036038101906101f69190612f26565b6106e9565b005b34801561020957600080fd5b50610212610801565b60405161021f919061364c565b60405180910390f35b34801561023457600080fd5b5061023d610ab6565b60405161024a919061398b565b60405180910390f35b34801561025f57600080fd5b50610268610ac0565b604051610275919061364c565b60405180910390f35b34801561028a57600080fd5b506102a560048036038101906102a09190612e20565b610dfa565b005b3480156102b357600080fd5b506102ce60048036038101906102c99190612e20565b610e5a565b005b3480156102dc57600080fd5b506102e5610e7a565b6040516102f2919061364c565b60405180910390f35b61031560048036038101906103109190613008565b6111b4565b005b34801561032357600080fd5b5061033e60048036038101906103399190613008565b611490565b60405161034b91906135a0565b60405180910390f35b34801561036057600080fd5b5061037b60048036038101906103769190612dbb565b611542565b604051610388919061398b565b60405180910390f35b6103ab60048036038101906103a69190612fb4565b6115fa565b6040516103b8919061398b565b60405180910390f35b6103db60048036038101906103d69190613031565b61163c565b005b3480156103e957600080fd5b506103f2611831565b6040516103ff9190613689565b60405180910390f35b34801561041457600080fd5b5061042f600480360381019061042a9190612eea565b6118c3565b005b61044b60048036038101906104469190613008565b6118d9565b005b34801561045957600080fd5b50610474600480360381019061046f9190612e6f565b611973565b005b34801561048257600080fd5b5061049d60048036038101906104989190613008565b6119d5565b6040516104aa9190613689565b60405180910390f35b3480156104bf57600080fd5b506104da60048036038101906104d59190612de4565b611b27565b6040516104e7919061366e565b60405180910390f35b60007f80ac58cd000000000000000000000000000000000000000000000000000000007bffffffffffffffffffffffffffffffffffffffffffffffffffffffff1916827bffffffffffffffffffffffffffffffffffffffffffffffffffffffff191614806105bb57507f5b5e139f000000000000000000000000000000000000000000000000000000007bffffffffffffffffffffffffffffffffffffffffffffffffffffffff1916827bffffffffffffffffffffffffffffffffffffffffffffffffffffffff1916145b806105cb57506105ca82611bbb565b5b9050919050565b6060600080546105e190613c62565b80601f016020809104026020016040519081016040528092919081815260200182805461060d90613c62565b801561065a5780601f1061062f5761010080835404028352916020019161065a565b820191906000526020600020905b81548152906001019060200180831161063d57829003601f168201915b5050505050905090565b600061066f82611c25565b6106ae576040517f08c379a00000000000000000000000000000000000000000000000000000000081526004016106a5906138ab565b60405180910390fd5b6004600083815260200190815260200160002060009054906101000a900473ffffffffffffffffffffffffffffffffffffffff169050919050565b60006106f482611490565b90508073ffffffffffffffffffffffffffffffffffffffff168373ffffffffffffffffffffffffffffffffffffffff161415610765576040517f08c379a000000000000000000000000000000000000000000000000000000000815260040161075c9061390b565b60405180910390fd5b8073ffffffffffffffffffffffffffffffffffffffff16610784611c91565b73ffffffffffffffffffffffffffffffffffffffff1614806107b357506107b2816107ad611c91565b611b27565b5b6107f2576040517f08c379a00000000000000000000000000000000000000000000000000000000081526004016107e9906137ab565b60405180910390fd5b6107fc8383611c99565b505050565b6060600061080f6008611d52565b9050600061081d6008611d52565b6108276007611d52565b6108319190613b30565b90506000808267ffffffffffffffff811115610876577f4e487b7100000000000000000000000000000000000000000000000000000000600052604160045260246000fd5b6040519080825280602002602001820160405280156108af57816020015b61089c612b82565b8152602001906001900390816108945790505b50905060005b84811015610aab573073ffffffffffffffffffffffffffffffffffffffff16600b60006001846108e59190613aa9565b815260200190815260200160002060020160009054906101000a900473ffffffffffffffffffffffffffffffffffffffff1673ffffffffffffffffffffffffffffffffffffffff161415610a985760006001826109429190613aa9565b90506000600b60008381526020019081526020016000209050806040518060a0016040529081600082015481526020016001820160009054906101000a900473ffffffffffffffffffffffffffffffffffffffff1673ffffffffffffffffffffffffffffffffffffffff1673ffffffffffffffffffffffffffffffffffffffff1681526020016002820160009054906101000a900473ffffffffffffffffffffffffffffffffffffffff1673ffffffffffffffffffffffffffffffffffffffff1673ffffffffffffffffffffffffffffffffffffffff168152602001600382015481526020016004820160009054906101000a900460ff161515151581525050848681518110610a7b577f4e487b7100000000000000000000000000000000000000000000000000000000600052603260045260246000fd5b6020026020010181905250600185610a939190613aa9565b945050505b8080610aa390613cc5565b9150506108b5565b508094505050505090565b6000600954905090565b60606000610ace6007611d52565b905060008060005b83811015610b77573373ffffffffffffffffffffffffffffffffffffffff16600b6000600184610b069190613aa9565b815260200190815260200160002060020160009054906101000a900473ffffffffffffffffffffffffffffffffffffffff1673ffffffffffffffffffffffffffffffffffffffff161415610b6457600183610b619190613aa9565b92505b8080610b6f90613cc5565b915050610ad6565b5060008267ffffffffffffffff811115610bba577f4e487b7100000000000000000000000000000000000000000000000000000000600052604160045260246000fd5b604051908082528060200260200182016040528015610bf357816020015b610be0612b82565b815260200190600190039081610bd85790505b50905060005b84811015610def573373ffffffffffffffffffffffffffffffffffffffff16600b6000600184610c299190613aa9565b815260200190815260200160002060020160009054906101000a900473ffffffffffffffffffffffffffffffffffffffff1673ffffffffffffffffffffffffffffffffffffffff161415610ddc576000600182610c869190613aa9565b90506000600b60008381526020019081526020016000209050806040518060a0016040529081600082015481526020016001820160009054906101000a900473ffffffffffffffffffffffffffffffffffffffff1673ffffffffffffffffffffffffffffffffffffffff1673ffffffffffffffffffffffffffffffffffffffff1681526020016002820160009054906101000a900473ffffffffffffffffffffffffffffffffffffffff1673ffffffffffffffffffffffffffffffffffffffff1673ffffffffffffffffffffffffffffffffffffffff168152602001600382015481526020016004820160009054906101000a900460ff161515151581525050848681518110610dbf577f4e487b7100000000000000000000000000000000000000000000000000000000600052603260045260246000fd5b6020026020010181905250600185610dd79190613aa9565b945050505b8080610de790613cc5565b915050610bf9565b508094505050505090565b610e0b610e05611c91565b82611d60565b610e4a576040517f08c379a0000000000000000000000000000000000000000000000000000000008152600401610e419061396b565b60405180910390fd5b610e55838383611e3e565b505050565b610e7583838360405180602001604052806000815250611973565b505050565b60606000610e886007611d52565b905060008060005b83811015610f31573373ffffffffffffffffffffffffffffffffffffffff16600b6000600184610ec09190613aa9565b815260200190815260200160002060010160009054906101000a900473ffffffffffffffffffffffffffffffffffffffff1673ffffffffffffffffffffffffffffffffffffffff161415610f1e57600183610f1b9190613aa9565b92505b8080610f2990613cc5565b915050610e90565b5060008267ffffffffffffffff811115610f74577f4e487b7100000000000000000000000000000000000000000000000000000000600052604160045260246000fd5b604051908082528060200260200182016040528015610fad57816020015b610f9a612b82565b815260200190600190039081610f925790505b50905060005b848110156111a9573373ffffffffffffffffffffffffffffffffffffffff16600b6000600184610fe39190613aa9565b815260200190815260200160002060010160009054906101000a900473ffffffffffffffffffffffffffffffffffffffff1673ffffffffffffffffffffffffffffffffffffffff1614156111965760006001826110409190613aa9565b90506000600b60008381526020019081526020016000209050806040518060a0016040529081600082015481526020016001820160009054906101000a900473ffffffffffffffffffffffffffffffffffffffff1673ffffffffffffffffffffffffffffffffffffffff1673ffffffffffffffffffffffffffffffffffffffff1681526020016002820160009054906101000a900473ffffffffffffffffffffffffffffffffffffffff1673ffffffffffffffffffffffffffffffffffffffff1673ffffffffffffffffffffffffffffffffffffffff168152602001600382015481526020016004820160009054906101000a900460ff161515151581525050848681518110611179577f4e487b7100000000000000000000000000000000000000000000000000000000600052603260045260246000fd5b60200260200101819052506001856111919190613aa9565b945050505b80806111a190613cc5565b915050610fb3565b508094505050505090565b600b600082815260200190815260200160002060020160009054906101000a900473ffffffffffffffffffffffffffffffffffffffff1673ffffffffffffffffffffffffffffffffffffffff163373ffffffffffffffffffffffffffffffffffffffff1614611258576040517f08c379a000000000000000000000000000000000000000000000000000000000815260040161124f906138cb565b60405180910390fd5b6000600b60008381526020019081526020016000206003015490508034146112b5576040517f08c379a00000000000000000000000000000000000000000000000000000000081526004016112ac9061382b565b60405180910390fd5b33600b600084815260200190815260200160002060020160006101000a81548173ffffffffffffffffffffffffffffffffffffffff021916908373ffffffffffffffffffffffffffffffffffffffff1602179055506000600b600084815260200190815260200160002060010160006101000a81548173ffffffffffffffffffffffffffffffffffffffff021916908373ffffffffffffffffffffffffffffffffffffffff1602179055506001600b600084815260200190815260200160002060040160006101000a81548160ff02191690831515021790555061139960086120a5565b6113a4303384611e3e565b600a60009054906101000a900473ffffffffffffffffffffffffffffffffffffffff1673ffffffffffffffffffffffffffffffffffffffff166108fc6009549081150290604051600060405180830381858888f1935050505015801561140e573d6000803e3d6000fd5b50600b600083815260200190815260200160002060010160009054906101000a900473ffffffffffffffffffffffffffffffffffffffff1673ffffffffffffffffffffffffffffffffffffffff166108fc349081150290604051600060405180830381858888f1935050505015801561148b573d6000803e3d6000fd5b505050565b6000806002600084815260200190815260200160002060009054906101000a900473ffffffffffffffffffffffffffffffffffffffff169050600073ffffffffffffffffffffffffffffffffffffffff168173ffffffffffffffffffffffffffffffffffffffff161415611539576040517f08c379a0000000000000000000000000000000000000000000000000000000008152600401611530906137eb565b60405180910390fd5b80915050919050565b60008073ffffffffffffffffffffffffffffffffffffffff168273ffffffffffffffffffffffffffffffffffffffff1614156115b3576040517f08c379a00000000000000000000000000000000000000000000000000000000081526004016115aa906137cb565b60405180910390fd5b600360008373ffffffffffffffffffffffffffffffffffffffff1673ffffffffffffffffffffffffffffffffffffffff168152602001908152602001600020549050919050565b600061160660076120a5565b60006116126007611d52565b905061161e33826120bb565b6116288185612295565b6116328184612309565b8091505092915050565b600b600083815260200190815260200160002060020160009054906101000a900473ffffffffffffffffffffffffffffffffffffffff1673ffffffffffffffffffffffffffffffffffffffff163373ffffffffffffffffffffffffffffffffffffffff16146116e0576040517f08c379a00000000000000000000000000000000000000000000000000000000081526004016116d79061392b565b60405180910390fd5b6009543414611724576040517f08c379a000000000000000000000000000000000000000000000000000000000815260040161171b9061384b565b60405180910390fd5b6000600b600084815260200190815260200160002060040160006101000a81548160ff02191690831515021790555080600b60008481526020019081526020016000206003018190555033600b600084815260200190815260200160002060010160006101000a81548173ffffffffffffffffffffffffffffffffffffffff021916908373ffffffffffffffffffffffffffffffffffffffff16021790555030600b600084815260200190815260200160002060020160006101000a81548173ffffffffffffffffffffffffffffffffffffffff021916908373ffffffffffffffffffffffffffffffffffffffff160217905550611822600861252e565b61182d333084611e3e565b5050565b60606001805461184090613c62565b80601f016020809104026020016040519081016040528092919081815260200182805461186c90613c62565b80156118b95780601f1061188e576101008083540402835291602001916118b9565b820191906000526020600020905b81548152906001019060200180831161189c57829003601f168201915b5050505050905090565b6118d56118ce611c91565b838361258a565b5050565b600a60009054906101000a900473ffffffffffffffffffffffffffffffffffffffff1673ffffffffffffffffffffffffffffffffffffffff163373ffffffffffffffffffffffffffffffffffffffff1614611969576040517f08c379a00000000000000000000000000000000000000000000000000000000081526004016119609061394b565b60405180910390fd5b8060098190555050565b61198461197e611c91565b83611d60565b6119c3576040517f08c379a00000000000000000000000000000000000000000000000000000000081526004016119ba9061396b565b60405180910390fd5b6119cf848484846126f7565b50505050565b60606119e082611c25565b611a1f576040517f08c379a0000000000000000000000000000000000000000000000000000000008152600401611a169061388b565b60405180910390fd5b6000600660008481526020019081526020016000208054611a3f90613c62565b80601f0160208091040260200160405190810160405280929190818152602001828054611a6b90613c62565b8015611ab85780601f10611a8d57610100808354040283529160200191611ab8565b820191906000526020600020905b815481529060010190602001808311611a9b57829003601f168201915b505050505090506000611ac9612753565b9050600081511415611adf578192505050611b22565b600082511115611b14578082604051602001611afc92919061357c565b60405160208183030381529060405292505050611b22565b611b1d8461276a565b925050505b919050565b6000600560008473ffffffffffffffffffffffffffffffffffffffff1673ffffffffffffffffffffffffffffffffffffffff16815260200190815260200160002060008373ffffffffffffffffffffffffffffffffffffffff1673ffffffffffffffffffffffffffffffffffffffff16815260200190815260200160002060009054906101000a900460ff16905092915050565b60007f01ffc9a7000000000000000000000000000000000000000000000000000000007bffffffffffffffffffffffffffffffffffffffffffffffffffffffff1916827bffffffffffffffffffffffffffffffffffffffffffffffffffffffff1916149050919050565b60008073ffffffffffffffffffffffffffffffffffffffff166002600084815260200190815260200160002060009054906101000a900473ffffffffffffffffffffffffffffffffffffffff1673ffffffffffffffffffffffffffffffffffffffff1614159050919050565b600033905090565b816004600083815260200190815260200160002060006101000a81548173ffffffffffffffffffffffffffffffffffffffff021916908373ffffffffffffffffffffffffffffffffffffffff160217905550808273ffffffffffffffffffffffffffffffffffffffff16611d0c83611490565b73ffffffffffffffffffffffffffffffffffffffff167f8c5be1e5ebec7d5bd14f71427d1e84f3dd0314c0f7b2291e5b200ac8c7c3b92560405160405180910390a45050565b600081600001549050919050565b6000611d6b82611c25565b611daa576040517f08c379a0000000000000000000000000000000000000000000000000000000008152600401611da19061378b565b60405180910390fd5b6000611db583611490565b90508073ffffffffffffffffffffffffffffffffffffffff168473ffffffffffffffffffffffffffffffffffffffff161480611e2457508373ffffffffffffffffffffffffffffffffffffffff16611e0c84610664565b73ffffffffffffffffffffffffffffffffffffffff16145b80611e355750611e348185611b27565b5b91505092915050565b8273ffffffffffffffffffffffffffffffffffffffff16611e5e82611490565b73ffffffffffffffffffffffffffffffffffffffff1614611eb4576040517f08c379a0000000000000000000000000000000000000000000000000000000008152600401611eab906136eb565b60405180910390fd5b600073ffffffffffffffffffffffffffffffffffffffff168273ffffffffffffffffffffffffffffffffffffffff161415611f24576040517f08c379a0000000000000000000000000000000000000000000000000000000008152600401611f1b9061372b565b60405180910390fd5b611f2f838383612811565b611f3a600082611c99565b6001600360008573ffffffffffffffffffffffffffffffffffffffff1673ffffffffffffffffffffffffffffffffffffffff1681526020019081526020016000206000828254611f8a9190613b30565b925050819055506001600360008473ffffffffffffffffffffffffffffffffffffffff1673ffffffffffffffffffffffffffffffffffffffff1681526020019081526020016000206000828254611fe19190613aa9565b92505081905550816002600083815260200190815260200160002060006101000a81548173ffffffffffffffffffffffffffffffffffffffff021916908373ffffffffffffffffffffffffffffffffffffffff160217905550808273ffffffffffffffffffffffffffffffffffffffff168473ffffffffffffffffffffffffffffffffffffffff167fddf252ad1be2c89b69c2b068fc378daa952ba7f163c4a11628f55a4df523b3ef60405160405180910390a46120a0838383612816565b505050565b6001816000016000828254019250508190555050565b600073ffffffffffffffffffffffffffffffffffffffff168273ffffffffffffffffffffffffffffffffffffffff16141561212b576040517f08c379a00000000000000000000000000000000000000000000000000000000081526004016121229061386b565b60405180910390fd5b61213481611c25565b15612174576040517f08c379a000000000000000000000000000000000000000000000000000000000815260040161216b9061370b565b60405180910390fd5b61218060008383612811565b6001600360008473ffffffffffffffffffffffffffffffffffffffff1673ffffffffffffffffffffffffffffffffffffffff16815260200190815260200160002060008282546121d09190613aa9565b92505081905550816002600083815260200190815260200160002060006101000a81548173ffffffffffffffffffffffffffffffffffffffff021916908373ffffffffffffffffffffffffffffffffffffffff160217905550808273ffffffffffffffffffffffffffffffffffffffff16600073ffffffffffffffffffffffffffffffffffffffff167fddf252ad1be2c89b69c2b068fc378daa952ba7f163c4a11628f55a4df523b3ef60405160405180910390a461229160008383612816565b5050565b61229e82611c25565b6122dd576040517f08c379a00000000000000000000000000000000000000000000000000000000081526004016122d49061380b565b60405180910390fd5b80600660008481526020019081526020016000209080519060200190612304929190612bdf565b505050565b6000811161234c576040517f08c379a00000000000000000000000000000000000000000000000000000000081526004016123439061376b565b60405180910390fd5b6009543414612390576040517f08c379a00000000000000000000000000000000000000000000000000000000081526004016123879061384b565b60405180910390fd5b6040518060a001604052808381526020013373ffffffffffffffffffffffffffffffffffffffff1681526020013073ffffffffffffffffffffffffffffffffffffffff16815260200182815260200160001515815250600b60008481526020019081526020016000206000820151816000015560208201518160010160006101000a81548173ffffffffffffffffffffffffffffffffffffffff021916908373ffffffffffffffffffffffffffffffffffffffff16021790555060408201518160020160006101000a81548173ffffffffffffffffffffffffffffffffffffffff021916908373ffffffffffffffffffffffffffffffffffffffff1602179055506060820151816003015560808201518160040160006101000a81548160ff0219169083151502179055509050506124c9333084611e3e565b817fb640004f1d14576d0c209e240cad0410e0d8c0c33a09375861fbadae2588a98d33600a60009054906101000a900473ffffffffffffffffffffffffffffffffffffffff1684600060405161252294939291906135bb565b60405180910390a25050565b6000816000015490506000811161257a576040517f08c379a0000000000000000000000000000000000000000000000000000000008152600401612571906136ab565b60405180910390fd5b6001810382600001819055505050565b8173ffffffffffffffffffffffffffffffffffffffff168373ffffffffffffffffffffffffffffffffffffffff1614156125f9576040517f08c379a00000000000000000000000000000000000000000000000000000000081526004016125f09061374b565b60405180910390fd5b80600560008573ffffffffffffffffffffffffffffffffffffffff1673ffffffffffffffffffffffffffffffffffffffff16815260200190815260200160002060008473ffffffffffffffffffffffffffffffffffffffff1673ffffffffffffffffffffffffffffffffffffffff16815260200190815260200160002060006101000a81548160ff0219169083151502179055508173ffffffffffffffffffffffffffffffffffffffff168373ffffffffffffffffffffffffffffffffffffffff167f17307eab39ab6107e8899845ad3d59bd9653f200f220920489ca2b5937696c31836040516126ea919061366e565b60405180910390a3505050565b612702848484611e3e565b61270e8484848461281b565b61274d576040517f08c379a0000000000000000000000000000000000000000000000000000000008152600401612744906136cb565b60405180910390fd5b50505050565b606060405180602001604052806000815250905090565b606061277582611c25565b6127b4576040517f08c379a00000000000000000000000000000000000000000000000000000000081526004016127ab906138eb565b60405180910390fd5b60006127be612753565b905060008151116127de5760405180602001604052806000815250612809565b806127e8846129b2565b6040516020016127f992919061357c565b6040516020818303038152906040525b915050919050565b505050565b505050565b600061283c8473ffffffffffffffffffffffffffffffffffffffff16612b5f565b156129a5578373ffffffffffffffffffffffffffffffffffffffff1663150b7a02612865611c91565b8786866040518563ffffffff1660e01b81526004016128879493929190613600565b602060405180830381600087803b1580156128a157600080fd5b505af19250505080156128d257506040513d601f19601f820116820180604052508101906128cf9190612f8b565b60015b612955573d8060008114612902576040519150601f19603f3d011682016040523d82523d6000602084013e612907565b606091505b5060008151141561294d576040517f08c379a0000000000000000000000000000000000000000000000000000000008152600401612944906136cb565b60405180910390fd5b805181602001fd5b63150b7a0260e01b7bffffffffffffffffffffffffffffffffffffffffffffffffffffffff1916817bffffffffffffffffffffffffffffffffffffffffffffffffffffffff1916149150506129aa565b600190505b949350505050565b606060008214156129fa576040518060400160405280600181526020017f30000000000000000000000000000000000000000000000000000000000000008152509050612b5a565b600082905060005b60008214612a2c578080612a1590613cc5565b915050600a82612a259190613aff565b9150612a02565b60008167ffffffffffffffff811115612a6e577f4e487b7100000000000000000000000000000000000000000000000000000000600052604160045260246000fd5b6040519080825280601f01601f191660200182016040528015612aa05781602001600182028036833780820191505090505b5090505b60008514612b5357600182612ab99190613b30565b9150600a85612ac89190613d0e565b6030612ad49190613aa9565b60f81b818381518110612b10577f4e487b7100000000000000000000000000000000000000000000000000000000600052603260045260246000fd5b60200101907effffffffffffffffffffffffffffffffffffffffffffffffffffffffffffff1916908160001a905350600a85612b4c9190613aff565b9450612aa4565b8093505050505b919050565b6000808273ffffffffffffffffffffffffffffffffffffffff163b119050919050565b6040518060a0016040528060008152602001600073ffffffffffffffffffffffffffffffffffffffff168152602001600073ffffffffffffffffffffffffffffffffffffffff168152602001600081526020016000151581525090565b828054612beb90613c62565b90600052602060002090601f016020900481019282612c0d5760008555612c54565b82601f10612c2657805160ff1916838001178555612c54565b82800160010185558215612c54579182015b82811115612c53578251825591602001919060010190612c38565b5b509050612c619190612c65565b5090565b5b80821115612c7e576000816000905550600101612c66565b5090565b6000612c95612c90846139cb565b6139a6565b905082815260208101848484011115612cad57600080fd5b612cb8848285613c20565b509392505050565b6000612cd3612cce846139fc565b6139a6565b905082815260208101848484011115612ceb57600080fd5b612cf6848285613c20565b509392505050565b600081359050612d0d8161448d565b92915050565b600081359050612d22816144a4565b92915050565b600081359050612d37816144bb565b92915050565b600081519050612d4c816144bb565b92915050565b600082601f830112612d6357600080fd5b8135612d73848260208601612c82565b91505092915050565b600082601f830112612d8d57600080fd5b8135612d9d848260208601612cc0565b91505092915050565b600081359050612db5816144d2565b92915050565b600060208284031215612dcd57600080fd5b6000612ddb84828501612cfe565b91505092915050565b60008060408385031215612df757600080fd5b6000612e0585828601612cfe565b9250506020612e1685828601612cfe565b9150509250929050565b600080600060608486031215612e3557600080fd5b6000612e4386828701612cfe565b9350506020612e5486828701612cfe565b9250506040612e6586828701612da6565b9150509250925092565b60008060008060808587031215612e8557600080fd5b6000612e9387828801612cfe565b9450506020612ea487828801612cfe565b9350506040612eb587828801612da6565b925050606085013567ffffffffffffffff811115612ed257600080fd5b612ede87828801612d52565b91505092959194509250565b60008060408385031215612efd57600080fd5b6000612f0b85828601612cfe565b9250506020612f1c85828601612d13565b9150509250929050565b60008060408385031215612f3957600080fd5b6000612f4785828601612cfe565b9250506020612f5885828601612da6565b9150509250929050565b600060208284031215612f7457600080fd5b6000612f8284828501612d28565b91505092915050565b600060208284031215612f9d57600080fd5b6000612fab84828501612d3d565b91505092915050565b60008060408385031215612fc757600080fd5b600083013567ffffffffffffffff811115612fe157600080fd5b612fed85828601612d7c565b9250506020612ffe85828601612da6565b9150509250929050565b60006020828403121561301a57600080fd5b600061302884828501612da6565b91505092915050565b6000806040838503121561304457600080fd5b600061305285828601612da6565b925050602061306385828601612da6565b9150509250929050565b600061307983836134f6565b60a08301905092915050565b61308e81613bea565b82525050565b61309d81613b76565b82525050565b6130ac81613b64565b82525050565b60006130bd82613a3d565b6130c78185613a6b565b93506130d283613a2d565b8060005b838110156131035781516130ea888261306d565b97506130f583613a5e565b9250506001810190506130d6565b5085935050505092915050565b61311981613b88565b82525050565b61312881613b88565b82525050565b600061313982613a48565b6131438185613a7c565b9350613153818560208601613c2f565b61315c81613dfb565b840191505092915050565b600061317282613a53565b61317c8185613a8d565b935061318c818560208601613c2f565b61319581613dfb565b840191505092915050565b60006131ab82613a53565b6131b58185613a9e565b93506131c5818560208601613c2f565b80840191505092915050565b60006131de601b83613a8d565b91506131e982613e0c565b602082019050919050565b6000613201603283613a8d565b915061320c82613e35565b604082019050919050565b6000613224602583613a8d565b915061322f82613e84565b604082019050919050565b6000613247601c83613a8d565b915061325282613ed3565b602082019050919050565b600061326a602483613a8d565b915061327582613efc565b604082019050919050565b600061328d601983613a8d565b915061329882613f4b565b602082019050919050565b60006132b0602283613a8d565b91506132bb82613f74565b604082019050919050565b60006132d3602c83613a8d565b91506132de82613fc3565b604082019050919050565b60006132f6603883613a8d565b915061330182614012565b604082019050919050565b6000613319602a83613a8d565b915061332482614061565b604082019050919050565b600061333c602983613a8d565b9150613347826140b0565b604082019050919050565b600061335f602e83613a8d565b915061336a826140ff565b604082019050919050565b6000613382604183613a8d565b915061338d8261414e565b606082019050919050565b60006133a5601e83613a8d565b91506133b0826141c3565b602082019050919050565b60006133c8602083613a8d565b91506133d3826141ec565b602082019050919050565b60006133eb603183613a8d565b91506133f682614215565b604082019050919050565b600061340e602c83613a8d565b915061341982614264565b604082019050919050565b6000613431602783613a8d565b915061343c826142b3565b604082019050919050565b6000613454602f83613a8d565b915061345f82614302565b604082019050919050565b6000613477602183613a8d565b915061348282614351565b604082019050919050565b600061349a602283613a8d565b91506134a5826143a0565b604082019050919050565b60006134bd602b83613a8d565b91506134c8826143ef565b604082019050919050565b60006134e0603183613a8d565b91506134eb8261443e565b604082019050919050565b60a08201600082015161350c600085018261355e565b50602082015161351f6020850182613094565b5060408201516135326040850182613094565b506060820151613545606085018261355e565b5060808201516135586080850182613110565b50505050565b61356781613be0565b82525050565b61357681613be0565b82525050565b600061358882856131a0565b915061359482846131a0565b91508190509392505050565b60006020820190506135b560008301846130a3565b92915050565b60006080820190506135d060008301876130a3565b6135dd6020830186613085565b6135ea604083018561356d565b6135f7606083018461311f565b95945050505050565b600060808201905061361560008301876130a3565b61362260208301866130a3565b61362f604083018561356d565b8181036060830152613641818461312e565b905095945050505050565b6000602082019050818103600083015261366681846130b2565b905092915050565b6000602082019050613683600083018461311f565b92915050565b600060208201905081810360008301526136a38184613167565b905092915050565b600060208201905081810360008301526136c4816131d1565b9050919050565b600060208201905081810360008301526136e4816131f4565b9050919050565b6000602082019050818103600083015261370481613217565b9050919050565b600060208201905081810360008301526137248161323a565b9050919050565b600060208201905081810360008301526137448161325d565b9050919050565b6000602082019050818103600083015261376481613280565b9050919050565b60006020820190508181036000830152613784816132a3565b9050919050565b600060208201905081810360008301526137a4816132c6565b9050919050565b600060208201905081810360008301526137c4816132e9565b9050919050565b600060208201905081810360008301526137e48161330c565b9050919050565b600060208201905081810360008301526138048161332f565b9050919050565b6000602082019050818103600083015261382481613352565b9050919050565b6000602082019050818103600083015261384481613375565b9050919050565b6000602082019050818103600083015261386481613398565b9050919050565b60006020820190508181036000830152613884816133bb565b9050919050565b600060208201905081810360008301526138a4816133de565b9050919050565b600060208201905081810360008301526138c481613401565b9050919050565b600060208201905081810360008301526138e481613424565b9050919050565b6000602082019050818103600083015261390481613447565b9050919050565b600060208201905081810360008301526139248161346a565b9050919050565b600060208201905081810360008301526139448161348d565b9050919050565b60006020820190508181036000830152613964816134b0565b9050919050565b60006020820190508181036000830152613984816134d3565b9050919050565b60006020820190506139a0600083018461356d565b92915050565b60006139b06139c1565b90506139bc8282613c94565b919050565b6000604051905090565b600067ffffffffffffffff8211156139e6576139e5613dcc565b5b6139ef82613dfb565b9050602081019050919050565b600067ffffffffffffffff821115613a1757613a16613dcc565b5b613a2082613dfb565b9050602081019050919050565b6000819050602082019050919050565b600081519050919050565b600081519050919050565b600081519050919050565b6000602082019050919050565b600082825260208201905092915050565b600082825260208201905092915050565b600082825260208201905092915050565b600081905092915050565b6000613ab482613be0565b9150613abf83613be0565b9250827fffffffffffffffffffffffffffffffffffffffffffffffffffffffffffffffff03821115613af457613af3613d3f565b5b828201905092915050565b6000613b0a82613be0565b9150613b1583613be0565b925082613b2557613b24613d6e565b5b828204905092915050565b6000613b3b82613be0565b9150613b4683613be0565b925082821015613b5957613b58613d3f565b5b828203905092915050565b6000613b6f82613bc0565b9050919050565b6000613b8182613bc0565b9050919050565b60008115159050919050565b60007fffffffff0000000000000000000000000000000000000000000000000000000082169050919050565b600073ffffffffffffffffffffffffffffffffffffffff82169050919050565b6000819050919050565b6000613bf582613bfc565b9050919050565b6000613c0782613c0e565b9050919050565b6000613c1982613bc0565b9050919050565b82818337600083830152505050565b60005b83811015613c4d578082015181840152602081019050613c32565b83811115613c5c576000848401525b50505050565b60006002820490506001821680613c7a57607f821691505b60208210811415613c8e57613c8d613d9d565b5b50919050565b613c9d82613dfb565b810181811067ffffffffffffffff82111715613cbc57613cbb613dcc565b5b80604052505050565b6000613cd082613be0565b91507fffffffffffffffffffffffffffffffffffffffffffffffffffffffffffffffff821415613d0357613d02613d3f565b5b600182019050919050565b6000613d1982613be0565b9150613d2483613be0565b925082613d3457613d33613d6e565b5b828206905092915050565b7f4e487b7100000000000000000000000000000000000000000000000000000000600052601160045260246000fd5b7f4e487b7100000000000000000000000000000000000000000000000000000000600052601260045260246000fd5b7f4e487b7100000000000000000000000000000000000000000000000000000000600052602260045260246000fd5b7f4e487b7100000000000000000000000000000000000000000000000000000000600052604160045260246000fd5b6000601f19601f8301169050919050565b7f436f756e7465723a2064656372656d656e74206f766572666c6f770000000000600082015250565b7f4552433732313a207472616e7366657220746f206e6f6e20455243373231526560008201527f63656976657220696d706c656d656e7465720000000000000000000000000000602082015250565b7f4552433732313a207472616e736665722066726f6d20696e636f72726563742060008201527f6f776e6572000000000000000000000000000000000000000000000000000000602082015250565b7f4552433732313a20746f6b656e20616c7265616479206d696e74656400000000600082015250565b7f4552433732313a207472616e7366657220746f20746865207a65726f2061646460008201527f7265737300000000000000000000000000000000000000000000000000000000602082015250565b7f4552433732313a20617070726f766520746f2063616c6c657200000000000000600082015250565b7f546f6b656e496420616e64207072696365206d757374206265206e6f6e2d7a6560008201527f726f000000000000000000000000000000000000000000000000000000000000602082015250565b7f4552433732313a206f70657261746f7220717565727920666f72206e6f6e657860008201527f697374656e7420746f6b656e0000000000000000000000000000000000000000602082015250565b7f4552433732313a20617070726f76652063616c6c6572206973206e6f74206f7760008201527f6e6572206e6f7220617070726f76656420666f7220616c6c0000000000000000602082015250565b7f4552433732313a2062616c616e636520717565727920666f7220746865207a6560008201527f726f206164647265737300000000000000000000000000000000000000000000602082015250565b7f4552433732313a206f776e657220717565727920666f72206e6f6e657869737460008201527f656e7420746f6b656e0000000000000000000000000000000000000000000000602082015250565b7f45524337323155524953746f726167653a2055524920736574206f66206e6f6e60008201527f6578697374656e7420746f6b656e000000000000000000000000000000000000602082015250565b7f506c65617365207375626d69742074686520636f727265637420616d6f756e7460008201527f206f6620657468657220746f206372656174652061206d61726b65742073616c60208201527f6500000000000000000000000000000000000000000000000000000000000000604082015250565b7f5072696365206d757374206d61746368206c697374696e672070726963650000600082015250565b7f4552433732313a206d696e7420746f20746865207a65726f2061646472657373600082015250565b7f45524337323155524953746f726167653a2055524920717565727920666f722060008201527f6e6f6e6578697374656e7420746f6b656e000000000000000000000000000000602082015250565b7f4552433732313a20617070726f76656420717565727920666f72206e6f6e657860008201527f697374656e7420746f6b656e0000000000000000000000000000000000000000602082015250565b7f4f6e6c7920746865206f776e65722063616e206372656174652061206d61726b60008201527f65742073616c6500000000000000000000000000000000000000000000000000602082015250565b7f4552433732314d657461646174613a2055524920717565727920666f72206e6f60008201527f6e6578697374656e7420746f6b656e0000000000000000000000000000000000602082015250565b7f4552433732313a20617070726f76616c20746f2063757272656e74206f776e6560008201527f7200000000000000000000000000000000000000000000000000000000000000602082015250565b7f4f6e6c7920746865206f776e65722063616e2072652d73656c6c206120746f6b60008201527f656e000000000000000000000000000000000000000000000000000000000000602082015250565b7f4f6e6c7920746865206f776e65722063616e2075706461746520746865206c6960008201527f7374696e67207072696365000000000000000000000000000000000000000000602082015250565b7f4552433732313a207472616e736665722063616c6c6572206973206e6f74206f60008201527f776e6572206e6f7220617070726f766564000000000000000000000000000000602082015250565b61449681613b64565b81146144a157600080fd5b50565b6144ad81613b88565b81146144b857600080fd5b50565b6144c481613b94565b81146144cf57600080fd5b50565b6144db81613be0565b81146144e657600080fd5b5056fea2646970667358221220095b1f97585405299a4f19919fa889de26fddb80fa6177e83f7d2304a814838964736f6c63430008040033",
  "linkReferences": {},
  "deployedLinkReferences": {}
}